:020000000328D3
:10000600F030210099008C0123008C012000A00112
:100016002008173C031C1628A101A201A301B12642
:100026002000A00A0B28A0012008053C031C252857
:10003600F430A1008B30A2003C30A300B126200092
:10004600A00A1728A0012008023C031C3128A101A0
:10005600A201A301B1262000A00A2628A00120089B
:10006600073C031C4028F430A1008B30A2003C3032
:10007600A300B1262000A00A3228A00120080C3CCB
:10008600031C4C28A101A201A301B1262000A00A4D
:100096004128A0012008133C031C5B28F430A10072
:1000A6008B30A2003C30A300B1262000A00A4D28C8
:1000B600A0012008013C031C6728A101A201A3019D
:1000C600B1262000A00A5C28E630A1003930A20043
:1000D6002930A300B1262000A0012008043C031CFF
:1000E6007B28A101A201A301B1262000A00A702845
:1000F600A0012008013C031C8A28E630A100393003
:10010600A2002930A300B1262000A00A7C28A00165
:100116002008013C031C9628A101A201A301B126D7
:100126002000A00A8B28F430A1008B30A2003C30BE
:10013600A300B1264C302000A1003830A2002A309E
:10014600A300B126FF302000A100FF30A200FF303F
:10015600A300B1262000A0012008033C031CBD28F3
:10016600F430A1008B30A2003C30A300B126200061
:10017600A00AAF284C30A1003830A2002A30A300D4
:10018600B126FF302000A100FF30A200FF30A300FF
:10019600B1262000A0012008013C031CDC28F43015
:1001A600A1008B30A2003C30A300B1262000A00A9B
:1001B600CE28A0012008013C031CEB284C30A100EE
:1001C6003830A2002A30A300B1262000A00ADD287C
:1001D600A0012008033C031CFA28F430A1008B3050
:1001E600A2003C30A300B1262000A00AEC28A00102
:1001F6002008013C031C09294C30A1003830A2001C
:100206002A30A300B1262000A00AFB28F430A10062
:100216008B30A2003C30A300B1262000A0012008AC
:10022600013C031C1D29A101A201A301B126200046
:10023600A00A1229A0012008023C031C2C29E63042
:10024600A1003930A2002930A300B1262000A00A5F
:100256001E29A0012008013C031C3829A101A20186
:10026600A301B1262000A00A2D29E630A1003930CD
:10027600A2002930A300B126FF302000A100D8300B
:10028600A2006830A300B126E6302000A100393074
:10029600A2002930A300B1262000A0012008013CBD
:1002A600031C5C29A101A201A301B1262000A00A1A
:1002B6005129F430A1008B30A2003C30A300B126B6
:1002C6002E302000A1009B30A200BA30A300B12638
:1002D6004C302000A1003830A2002A30A300B126FD
:1002E6002000A0012008033C031C8329F430A10050
:1002F6008B30A2003C30A300B1262000A00A75294D
:100306004C30A1003830A2002A30A300B1262E308E
:100316002000A1009B30A200BA30A300B126200025
:10032600A0012008023C031CA229F430A1008B3056
:10033600A2003C30A300B1262000A00A94292E304A
:10034600A1009B30A200BA30A300B1262000A00174
:100356002008033C031CB929F430A1008B30A2000D
:100366003C30A300B1262000A00AAB292E30A10004
:100376009B30A200BA30A300B1262000A0012008BD
:10038600013C031CD029F430A1008B30A2003C3084
:10039600A300B1262000A00AC229A0012008013C22
:1003A600031CDC29A101A201A301B1262000A00A99
:1003B600D129E630A1003930A2002930A300B126A8
:1003C600FF302000A100D830A2006830A300B1267B
:1003D600E6302000A1003930A2002930A300B12662
:1003E6002000A0012008023C031C002AA101A20152
:1003F600A301B1262000A00AF529E630A100393074
:10040600A2002930A300B1262000A0012008033C49
:10041600031C142AA101A201A301B1262000A00AEF
:10042600092AA0012008073C031C232AF430A10056
:100436008B30A2003C30A300B1262000A00A152A6A
:10044600A101A201A301B126F4302000A1008B3046
:10045600A2003C30A300B126CC302000A1005C30C5
:10046600A2002430A300B1262000A0012008053CEC
:10047600031C472AF430A1008B30A2003C30A300B5
:10048600B1262000A00A392ACC30A1005C30A20097
:100496002430A300B126F4302000A1008B30A20046
:1004A6003C30A300B1262000A0012008013C031C1B
:1004B600632AA101A201A301B1262000A00A582A9D
:1004C600CC30A1005C30A2002430A300B126F43069
:1004D6002000A1008B30A2003C30A300B1262000F2
:1004E600A0012008043C031C7F2AA101A201A3014C
:1004F600B1262000A00A742AA0012008013C031C92
:100506008E2AF430A1008B30A2003C30A300B12625
:100516002000A00A802ACC30A1005C30A200243042
:10052600A300B1262000A0012008013C031CA52A37
:10053600F430A1008B30A2003C30A300B12620008D
:10054600A00A972ACC30A1005C30A2002430A30078
:10055600B1262000A0012008033C031CBC2ACF3092
:10056600A100B330A2004230A300B1262000A00AA9
:10057600AE2ACC30A1005C30A2002430A300B12604
:100586002000A0012008013C031CD32AF430A1005E
:100596008B30A2003C30A300B1262000A00AC52A59
:1005A600A101A201A301B1262000A0012008013C5F
:1005B600031CE72ACC30A1005C30A2002430A30043
:1005C600B1262000A00AD92AA0012008033C031C5A
:1005D600F62AFF30A100D830A2006830A300B12669
:1005E6002000A00AE82AA0012008023C031C052BD3
:1005F600CC30A1005C30A2002430A300B12620003C
:10060600A00AF72AA0012008013C031C142BF43091
:10061600A1008B30A2003C30A300B1262000A00A26
:10062600062BA0012008093C031C202BA101A201D6
:10063600A301B1262000A00A152BA0012008023C28
:10064600031C2F2BF430A1008B30A2003C30A300FA
:10065600B1262000A00A212BA0012008033C031C80
:100666003E2BFF30A100D830A2006830A300B1268F
:100676002000A00A302BA0012008013C031C4D2BB2
:10068600F430A1008B30A2003C30A300B12620003C
:10069600A00A3F2BA0012008023C031C592BA101F4
:1006A600A201A301B1262000A00A4E2BA00120081A
:1006B600013C031C682BCC30A1005C30A200243026
:1006C600A300B1262000A00A5A2BA0012008023C54
:1006D600031C742BA101A201A301B1262000A00ACC
:1006E600692BA0012008013C031C832BCC30A10000
:1006F6005C30A2002430A300B1262000A00A752B8E
:10070600A0012008163C031C8F2BA101A201A30106
:10071600B1262000A00A842B22000C108530FD0093
:10072600FD0B932B1530FB004B30FC00BE30FD005B
:10073600FD0B9B2BFC0B9B2BFB0B9B2B000020002C
:10074600A0012008213C031CAF2BA101A201A3019B
:10075600B1262000A00AA42BA0012008053C031CFA
:10076600BE2BF430A1008B30A2003C30A300B12692
:100776002000A00AB02BA00120080E3C031CCA2BA7
:10078600A101A201A301B1262000A00ABF2BA0014E
:100796002008073C031CD92BF430A1008B30A200A3
:1007A6003C30A300B1262000A00ACB2BA101A20158
:1007B600A301B1262000A0012008093C031CED2B53
:1007C600F430A1008B30A2003C30A300B1262000FB
:1007D600A00ADF2BA0012008023C031CF92BA10173
:1007E600A201A301B1262000A00AEE2BE630A1004B
:1007F6003930A2002930A300B1262000A00120082C
:10080600033C031C0D2CA101A201A301B12620006B
:10081600A00A022CA0012008013C031C1C2CE63077
:10082600A1003930A2002930A300B1262000A00A79
:100836000E2CA0012008013C031C282CA101A201BA
:10084600A301B1262000A00A1D2CA0012008133CFC
:10085600031C372CF430A1008B30A2003C30A300DF
:10086600B1262000A00A292CA101A201A301B126CC
:100876002000A0012008023C031C4B2CE630A100FE
:100886003930A2002930A300B1262000A00A3D2C51
:10089600A0012008033C031C572CA101A201A301BF
:1008A600B1262000A00A4C2CE630A1003930A20067
:1008B6002930A300B126FF302000A100D830A200C5
:1008C6006830A300B126E6302000A1003930A2002E
:1008D6002930A300B1262000A101A201A301B1265F
:1008E600F4302000A1008B30A2003C30A300B126DA
:1008F600CC302000A1005C30A2002430A300B12639
:100906002000A0012008053C031C932CF430A10014
:100916008B30A2003C30A300B1262000A00A852C13
:10092600CC30A1005C30A2002430A300B126200008
:10093600A0012008013C031CAA2CF430A1008B3036
:10094600A2003C30A300B1262000A00A9C2CA001E6
:100956002008013C031CB92CCC30A1005C30A2005D
:100966002430A300B1262000A00AAB2CA001200849
:10097600033C031CC82CF430A1008B30A2003C3091
:10098600A300B1262000A00ABA2CA0012008013C31
:10099600031CD72CCC30A1005C30A2002430A3006D
:1009A600B1262000A00AC92CF430A1008B30A20089
:1009B6003C30A300B1262000A101A201A301B1266B
:1009C600E6302000A1003930A2002930A300B1266C
:1009D600FF302000A100D830A2006830A300B12665
:1009E600E6302000A1003930A2002930A300B1264C
:1009F6002000A0012008043C031C082DA101A2012F
:100A0600A301B1262000A00AFD2CE630A100393052
:100A1600A2002930A300B1262000A0012008013C35
:100A2600031C1C2DA101A201A301B1262000A00ACE
:100A3600112DA0012008013C031C2B2DF430A10030
:100A46008B30A2003C30A300B1262000A00A1D2D49
:100A5600CC30A1005C30A2002430A300B1262000D7
:100A6600A0012008033C031C422DF430A1008B306A
:100A7600A2003C30A300B1262000A00A342DCC30C1
:100A8600A1005C30A2002430A300B1262000A00102
:100A96002008013C031C592DF430A1008B30A20024
:100AA6003C30A300B1262000A00A4B2DA101A201D3
:100AB600A301B1262000A0012008073C031C6D2DD0
:100AC600F430A1008B30A2003C30A300B1262000F8
:100AD600A00A5F2DA0012008013C031C792DA1016D
:100AE600A201A301B1262000A00A6E2DCC30A100E0
:100AF6005C30A2002430A300B126F4302000A1000F
:100B06008B30A2003C30A300B1262000A0012008B3
:100B1600053C031C952DA101A201A301B1262000CD
:100B2600A00A8A2DA0012008013C031CA42DF43044
:100B3600A1008B30A2003C30A300B1262000A00A01
:100B4600962DCC30A1005C30A2002430A300B12643
:100B5600F4302000A1008B30A2003C30A300B12667
:100B6600CC302000A1005C30A2002430A300B126C6
:100B76002000A0012008053C031CCB2DF430A10069
:100B86008B30A2003C30A300B1262000A00ABD2D68
:100B9600CC30A1005C30A2002430A300B126200096
:100BA600A0012008023C031CE22DF430A1008B308A
:100BB600A2003C30A300B1262000A00AD42DCC30E0
:100BC600A1005C30A2002430A300B1262000A001C1
:100BD6002008033C031CF92DCF30A100B330A2003E
:100BE6004230A300B1262000A00AEB2DCC30A10094
:100BF6005C30A2002430A300B1262000A00120080A
:100C0600013C031C102EF430A1008B30A2003C30B6
:100C1600A300B1262000A00A022ECC30A1005C3031
:100C2600A2002430A300B126F4302000A1008B30AE
:100C3600A2003C30A300B1262000A0012008093CF8
:100C4600031C2C2EA101A201A301B1262000A00A9B
:100C5600212EA0012008023C031C3B2ECC30A10013
:100C66005C30A2002430A300B1262000A00A2D2E5D
:100C7600A0012008033C031C4A2EFF30A100D830F7
:100C8600A2006830A300B1262000A00A3C2EA001D5
:100C96002008013C031C592ECC30A1005C30A20078
:100CA6002430A300B1262000A00A4B2EA001200864
:100CB600023C031C652EA101A201A301B12620005E
:100CC600A00A5A2EA0012008013C031C742ECC3029
:100CD600A1005C30A2002430A300B1262000A00AA7
:100CE600662EA0012008023C031C802EA101A20151
:100CF600A301B1262000A00A752EA0012008013C00
:100D0600031C8F2ECC30A1005C30A2002430A3003F
:100D1600B1262000A00A812EA0012008163C031C43
:100D26009B2EA101A201A301B1262000A00A902EAC
:100D360022000C108530FD00FD0B9F2E0B30FB00B2
:100D46002630FC005D30FD00FD0BA72EFC0BA72E08
:0C0D5600FB0BA72E000000000928B02EA7
:100D620000302000A21B0130A400422700302000E6
:100D7200221B0130A400422700302000A21A0130B9
:100D8200A400422700302000221A0130A40042278A
:100D920000302000A2190130A400422700302000B8
:100DA20022190130A400422700302000A21801308D
:100DB200A40042270030200022180130A40042275C
:100DC20000302000A11B0130A40042270030200087
:100DD200211B0130A400422700302000A11A01305B
:100DE200A400422700302000211A0130A40042272B
:100DF20000302000A1190130A40042270030200059
:100E020021190130A400422700302000A11801302E
:100E1200A40042270030200021180130A4004227FC
:100E220000302000A31B0130A40042270030200024
:100E3200231B0130A400422700302000A31A0130F6
:100E4200A400422700302000231A0130A4004227C8
:100E520000302000A3190130A400422700302000F6
:100E620023190130A400422700302000A3180130CA
:100E7200A40042270030200023180130A40042279A
:020E8200080066
:100E840020002408013A031D512F22000C140C14D5
:100E94000C140C140C140C140C140C10562F2200EB
:0A0EA4000C140C140C140C100800C0
:020000040001F9
:04000E00843F131701
:00000001FF
